{"mocks/MockGovernance.sol":{"MockGovernance":{"abi":[{"anonymous":false,"inputs":[{"indexed":true,"internalType":"uint256","name":"proposalId","type":"uint256"}],"name":"ProposalExecuted","type":"event"},{"anonymous":false,"inputs":[{"indexed":true,"internalType":"uint256","name":"proposalId","type":"uint256"},{"indexed":false,"internalType":"address","name":"proposer","type":"address"}],"name":"ProposalSubmitted","type":"event"},{"anonymous":false,"inputs":[{"indexed":true,"internalType":"uint256","name":"proposalId","type":"uint256"},{"indexed":true,"internalType":"address","name":"voter","type":"address"},{"indexed":false,"internalType":"bool","name":"support","type":"bool"}],"name":"VoteCast","type":"event"},{"inputs":[{"internalType":"uint256","name":"proposalId","type":"uint256"},{"internalType":"bool","name":"support","type":"bool"}],"name":"castVote","outputs":[],"stateMutability":"nonpayable","type":"function"},{"inputs":[{"internalType":"uint256","name":"proposalId","type":"uint256"}],"name":"executeProposal","outputs":[],"stateMutability":"nonpayable","type":"function"},{"inputs":[{"internalType":"uint256","name":"proposalId","type":"uint256"}],"name":"submitProposal","outputs":[],"stateMutability":"nonpayable","type":"function"}],"evm":{"bytecode":{"linkReferences":{},"object":"608060405234801561001057600080fd5b506101a8806100206000396000f3fe608060405234801561001057600080fd5b50600436106100415760003560e01c80630d61b5191461004657806315373e3d1461005b578063736d95aa1461006e575b600080fd5b610059610054366004610124565b610081565b005b61005961006936600461013d565b6100af565b61005961007c366004610124565b6100ec565b60405181907f712ae1383f79ac853f8d882153778e0260ef8f03b504e2866e0593e04d2b291f90600090a250565b6040518115158152339083907fe71fcdac32df1877c1700e7bda2a03157e20993363a28fc35ac495cefc76e4d49060200160405180910390a35050565b60405133815281907f11641d364e926d2bf231c2d36f2a9271390042d717ea334a3e7c983c27a123919060200160405180910390a250565b60006020828403121561013657600080fd5b5035919050565b6000806040838503121561015057600080fd5b823591506020830135801515811461016757600080fd5b80915050925092905056fea2646970667358221220f0b73becdff0ad9507a51b243c74932578912d159422fac77f539e8a82ad4ff564736f6c63430008130033","opcodes":"PUSH1 0x80 PUSH1 0x40 MSTORE CALLVALUE DUP1 ISZERO PUSH2 0x10 JUMPI PUSH1 0x0 DUP1 REVERT JUMPDEST POP PUSH2 0x1A8 DUP1 PUSH2 0x20 PUSH1 0x0 CODECOPY PUSH1 0x0 RETURN INVALID PUSH1 0x80 PUSH1 0x40 MSTORE CALLVALUE DUP1 ISZERO PUSH2 0x10 JUMPI PUSH1 0x0 DUP1 REVERT JUMPDEST POP PUSH1 0x4 CALLDATASIZE LT PUSH2 0x41 JUMPI PUSH1 0x0 CALLDATALOAD PUSH1 0xE0 SHR DUP1 PUSH4 0xD61B519 EQ PUSH2 0x46 JUMPI DUP1 PUSH4 0x15373E3D EQ PUSH2 0x5B JUMPI DUP1 PUSH4 0x736D95AA EQ PUSH2 0x6E JUMPI JUMPDEST PUSH1 0x0 DUP1 REVERT JUMPDEST PUSH2 0x59 PUSH2 0x54 CALLDATASIZE PUSH1 0x4 PUSH2 0x124 JUMP JUMPDEST PUSH2 0x81 JUMP JUMPDEST STOP JUMPDEST PUSH2 0x59 PUSH2 0x69 CALLDATASIZE PUSH1 0x4 PUSH2 0x13D JUMP JUMPDEST PUSH2 0xAF JUMP JUMPDEST PUSH2 0x59 PUSH2 0x7C CALLDATASIZE PUSH1 0x4 PUSH2 0x124 JUMP JUMPDEST PUSH2 0xEC JUMP JUMPDEST PUSH1 0x40 MLOAD DUP2 SWAP1 PUSH32 0x712AE1383F79AC853F8D882153778E0260EF8F03B504E2866E0593E04D2B291F SWAP1 PUSH1 0x0 SWAP1 LOG2 POP JUMP JUMPDEST PUSH1 0x40 MLOAD DUP2 ISZERO ISZERO DUP2 MSTORE CALLER SWAP1 DUP4 SWAP1 PUSH32 0xE71FCDAC32DF1877C1700E7BDA2A03157E20993363A28FC35AC495CEFC76E4D4 SWAP1 PUSH1 0x20 ADD PUSH1 0x40 MLOAD DUP1 SWAP2 SUB SWAP1 LOG3 POP POP JUMP JUMPDEST PUSH1 0x40 MLOAD CALLER DUP2 MSTORE DUP2 SWAP1 PUSH32 0x11641D364E926D2BF231C2D36F2A9271390042D717EA334A3E7C983C27A12391 SWAP1 PUSH1 0x20 ADD PUSH1 0x40 MLOAD DUP1 SWAP2 SUB SWAP1 LOG2 POP JUMP JUMPDEST PUSH1 0x0 PUSH1 0x20 DUP3 DUP5 SUB SLT ISZERO PUSH2 0x136 JUMPI PUSH1 0x0 DUP1 REVERT JUMPDEST POP CALLDATALOAD SWAP2 SWAP1 POP JUMP JUMPDEST PUSH1 0x0 DUP1 PUSH1 0x40 DUP4 DUP6 SUB SLT ISZERO PUSH2 0x150 JUMPI PUSH1 0x0 DUP1 REVERT JUMPDEST DUP3 CALLDATALOAD SWAP2 POP PUSH1 0x20 DUP4 ADD CALLDATALOAD DUP1 ISZERO ISZERO DUP2 EQ PUSH2 0x167 JUMPI PUSH1 0x0 DUP1 REVERT JUMPDEST DUP1 SWAP2 POP POP SWAP3 POP SWAP3 SWAP1 POP JUMP INVALID LOG2 PUSH5 0x6970667358 0x22 SLT KECCAK256 CREATE 0xB7 EXTCODESIZE 0xEC 0xDF CREATE 0xAD SWAP6 SMOD 0xA5 SHL 0x24 EXTCODECOPY PUSH21 0x932578912D159422FAC77F539E8A82AD4FF564736F PUSH13 0x63430008130033000000000000 "},"methodIdentifiers":{"castVote(uint256,bool)":"15373e3d","executeProposal(uint256)":"0d61b519","submitProposal(uint256)":"736d95aa"}}}}}